{
  "_format": "hh-sol-artifact-1",
  "contractName": "ReentrantERC20",
  "sourceName": "contracts/ReentrantERC20.sol",
  "abi": [
    {
      "inputs": [],
      "stateMutability": "nonpayable",
      "type": "constructor"
    },
    {
      "inputs": [
        {
          "internalType": "address",
          "name": "spender",
          "type": "address"
        },
        {
          "internalType": "uint256",
          "name": "allowance",
          "type": "uint256"
        },
        {
          "internalType": "uint256",
          "name": "needed",
          "type": "uint256"
        }
      ],
      "name": "ERC20InsufficientAllowance",
      "type": "error"
    },
    {
      "inputs": [
        {
          "internalType": "address",
          "name": "sender",
          "type": "address"
        },
        {
          "internalType": "uint256",
          "name": "balance",
          "type": "uint256"
        },
        {
          "internalType": "uint256",
          "name": "needed",
          "type": "uint256"
        }
      ],
      "name": "ERC20InsufficientBalance",
      "type": "error"
    },
    {
      "inputs": [
        {
          "internalType": "address",
          "name": "approver",
          "type": "address"
        }
      ],
      "name": "ERC20InvalidApprover",
      "type": "error"
    },
    {
      "inputs": [
        {
          "internalType": "address",
          "name": "receiver",
          "type": "address"
        }
      ],
      "name": "ERC20InvalidReceiver",
      "type": "error"
    },
    {
      "inputs": [
        {
          "internalType": "address",
          "name": "sender",
          "type": "address"
        }
      ],
      "name": "ERC20InvalidSender",
      "type": "error"
    },
    {
      "inputs": [
        {
          "internalType": "address",
          "name": "spender",
          "type": "address"
        }
      ],
      "name": "ERC20InvalidSpender",
      "type": "error"
    },
    {
      "anonymous": false,
      "inputs": [
        {
          "indexed": true,
          "internalType": "address",
          "name": "owner",
          "type": "address"
        },
        {
          "indexed": true,
          "internalType": "address",
          "name": "spender",
          "type": "address"
        },
        {
          "indexed": false,
          "internalType": "uint256",
          "name": "value",
          "type": "uint256"
        }
      ],
      "name": "Approval",
      "type": "event"
    },
    {
      "anonymous": false,
      "inputs": [
        {
          "indexed": true,
          "internalType": "address",
          "name": "from",
          "type": "address"
        },
        {
          "indexed": true,
          "internalType": "address",
          "name": "to",
          "type": "address"
        },
        {
          "indexed": false,
          "internalType": "uint256",
          "name": "value",
          "type": "uint256"
        }
      ],
      "name": "Transfer",
      "type": "event"
    },
    {
      "inputs": [
        {
          "internalType": "address",
          "name": "owner",
          "type": "address"
        },
        {
          "internalType": "address",
          "name": "spender",
          "type": "address"
        }
      ],
      "name": "allowance",
      "outputs": [
        {
          "internalType": "uint256",
          "name": "",
          "type": "uint256"
        }
      ],
      "stateMutability": "view",
      "type": "function"
    },
    {
      "inputs": [
        {
          "internalType": "address",
          "name": "spender",
          "type": "address"
        },
        {
          "internalType": "uint256",
          "name": "value",
          "type": "uint256"
        }
      ],
      "name": "approve",
      "outputs": [
        {
          "internalType": "bool",
          "name": "",
          "type": "bool"
        }
      ],
      "stateMutability": "nonpayable",
      "type": "function"
    },
    {
      "inputs": [
        {
          "internalType": "address",
          "name": "vaultAddress",
          "type": "address"
        },
        {
          "internalType": "uint256",
          "name": "reentryAmount",
          "type": "uint256"
        }
      ],
      "name": "armDepositAttack",
      "outputs": [],
      "stateMutability": "nonpayable",
      "type": "function"
    },
    {
      "inputs": [],
      "name": "attackAmount",
      "outputs": [
        {
          "internalType": "uint256",
          "name": "",
          "type": "uint256"
        }
      ],
      "stateMutability": "view",
      "type": "function"
    },
    {
      "inputs": [],
      "name": "attackType",
      "outputs": [
        {
          "internalType": "enum ReentrantERC20.AttackType",
          "name": "",
          "type": "uint8"
        }
      ],
      "stateMutability": "view",
      "type": "function"
    },
    {
      "inputs": [
        {
          "internalType": "uint256",
          "name": "amount",
          "type": "uint256"
        }
      ],
      "name": "attackWithdraw",
      "outputs": [],
      "stateMutability": "nonpayable",
      "type": "function"
    },
    {
      "inputs": [
        {
          "internalType": "address",
          "name": "account",
          "type": "address"
        }
      ],
      "name": "balanceOf",
      "outputs": [
        {
          "internalType": "uint256",
          "name": "",
          "type": "uint256"
        }
      ],
      "stateMutability": "view",
      "type": "function"
    },
    {
      "inputs": [],
      "name": "decimals",
      "outputs": [
        {
          "internalType": "uint8",
          "name": "",
          "type": "uint8"
        }
      ],
      "stateMutability": "view",
      "type": "function"
    },
    {
      "inputs": [
        {
          "internalType": "address",
          "name": "to",
          "type": "address"
        },
        {
          "internalType": "uint256",
          "name": "amount",
          "type": "uint256"
        }
      ],
      "name": "mint",
      "outputs": [],
      "stateMutability": "nonpayable",
      "type": "function"
    },
    {
      "inputs": [],
      "name": "name",
      "outputs": [
        {
          "internalType": "string",
          "name": "",
          "type": "string"
        }
      ],
      "stateMutability": "view",
      "type": "function"
    },
    {
      "inputs": [
        {
          "internalType": "address",
          "name": "vaultAddress",
          "type": "address"
        },
        {
          "internalType": "uint256",
          "name": "seedAmount",
          "type": "uint256"
        },
        {
          "internalType": "uint256",
          "name": "reentryAmount",
          "type": "uint256"
        }
      ],
      "name": "seedAndArmWithdrawAttack",
      "outputs": [],
      "stateMutability": "nonpayable",
      "type": "function"
    },
    {
      "inputs": [],
      "name": "symbol",
      "outputs": [
        {
          "internalType": "string",
          "name": "",
          "type": "string"
        }
      ],
      "stateMutability": "view",
      "type": "function"
    },
    {
      "inputs": [],
      "name": "totalSupply",
      "outputs": [
        {
          "internalType": "uint256",
          "name": "",
          "type": "uint256"
        }
      ],
      "stateMutability": "view",
      "type": "function"
    },
    {
      "inputs": [
        {
          "internalType": "address",
          "name": "to",
          "type": "address"
        },
        {
          "internalType": "uint256",
          "name": "value",
          "type": "uint256"
        }
      ],
      "name": "transfer",
      "outputs": [
        {
          "internalType": "bool",
          "name": "",
          "type": "bool"
        }
      ],
      "stateMutability": "nonpayable",
      "type": "function"
    },
    {
      "inputs": [
        {
          "internalType": "address",
          "name": "from",
          "type": "address"
        },
        {
          "internalType": "address",
          "name": "to",
          "type": "address"
        },
        {
          "internalType": "uint256",
          "name": "value",
          "type": "uint256"
        }
      ],
      "name": "transferFrom",
      "outputs": [
        {
          "internalType": "bool",
          "name": "",
          "type": "bool"
        }
      ],
      "stateMutability": "nonpayable",
      "type": "function"
    },
    {
      "inputs": [],
      "name": "vault",
      "outputs": [
        {
          "internalType": "address",
          "name": "",
          "type": "address"
        }
      ],
      "stateMutability": "view",
      "type": "function"
    }
  ],
  "bytecode": "0x60806040523480156200001157600080fd5b506040518060400160405280600f81526020016e2932b2b73a3930b73a102a37b5b2b760891b8152506040518060400160405280600381526020016214939560ea1b815250816003908162000067919062000124565b50600462000076828262000124565b505050620001f0565b634e487b7160e01b600052604160045260246000fd5b600181811c90821680620000aa57607f821691505b602082108103620000cb57634e487b7160e01b600052602260045260246000fd5b50919050565b601f8211156200011f57600081815260208120601f850160051c81016020861015620000fa5750805b601f850160051c820191505b818110156200011b5782815560010162000106565b5050505b505050565b81516001600160401b038111156200014057620001406200007f565b620001588162000151845462000095565b84620000d1565b602080601f831160018114620001905760008415620001775750858301515b600019600386901b1c1916600185901b1785556200011b565b600085815260208120601f198616915b82811015620001c157888601518255948401946001909101908401620001a0565b5085821015620001e05787850151600019600388901b60f8161c191681555b5050505050600190811b01905550565b610bcd80620002006000396000f3fe608060405234801561001057600080fd5b50600436106101005760003560e01c806370a0823111610097578063a9059cbb11610066578063a9059cbb14610202578063ad0b523f14610215578063dd62ed3e1461022f578063fbfa77cf1461026857600080fd5b806370a08231146101b55780637d647817146101de57806388193565146101f157806395d89b41146101fa57600080fd5b806323b872dd116100d357806323b872dd1461016d578063313ce5671461018057806337981a221461018f57806340c10f19146101a257600080fd5b80630165644d1461010557806306fdde031461011a578063095ea7b31461013857806318160ddd1461015b575b600080fd5b6101186101133660046109b0565b610293565b005b6101226102dc565b60405161012f91906109da565b60405180910390f35b61014b6101463660046109b0565b61036e565b604051901515815260200161012f565b6002545b60405190815260200161012f565b61014b61017b366004610a28565b610388565b6040516012815260200161012f565b61011861019d366004610a64565b6103a8565b6101186101b03660046109b0565b61045d565b61015f6101c3366004610a97565b6001600160a01b031660009081526020819052604090205490565b6101186101ec366004610ab2565b610467565b61015f60065481565b6101226104ce565b61014b6102103660046109b0565b6104dd565b6007546102229060ff1681565b60405161012f9190610ae1565b61015f61023d366004610b09565b6001600160a01b03918216600090815260016020908152604080832093909416825291909152205490565b60055461027b906001600160a01b031681565b6040516001600160a01b03909116815260200161012f565b600580546001600160a01b0319166001600160a01b03841617905560068190556007805461ffff191660011790556102cb30826104fb565b6102d83083600019610536565b5050565b6060600380546102eb90610b3c565b80601f016020809104026020016040519081016040528092919081815260200182805461031790610b3c565b80156103645780601f1061033957610100808354040283529160200191610364565b820191906000526020600020905b81548152906001019060200180831161034757829003601f168201915b5050505050905090565b60003361037c818585610536565b60019150505b92915050565b600080610396858585610548565b90506103a061056c565b949350505050565b600580546001600160a01b0319166001600160a01b03851617905560068190556007805461ffff191690556103dd30836104fb565b6103ea3084600019610536565b6040516311f9fbc960e21b8152306004820152602481018390526001600160a01b038416906347e7ef2490604401600060405180830381600087803b15801561043257600080fd5b505af1158015610446573d6000803e3d6000fd5b50506007805461ffff191660021790555050505050565b6102d882826104fb565b60055460405163f3fef3a360e01b8152306004820152602481018390526001600160a01b039091169063f3fef3a390604401600060405180830381600087803b1580156104b357600080fd5b505af11580156104c7573d6000803e3d6000fd5b5050505050565b6060600480546102eb90610b3c565b6000806104ea84846106af565b90506104f461056c565b9392505050565b6001600160a01b03821661052a5760405163ec442f0560e01b8152600060048201526024015b60405180910390fd5b6102d8600083836106bd565b61054383838360016107e7565b505050565b6000336105568582856108bc565b610561858585610935565b506001949350505050565b6005546001600160a01b0316158061058b5750600754610100900460ff165b806105a157506005546001600160a01b03163314155b156105a857565b6007805461ff001916610100179055600160075460ff1660028111156105d0576105d0610acb565b0361063f576005546006546040516311f9fbc960e21b815230600482015260248101919091526001600160a01b03909116906347e7ef2490604401600060405180830381600087803b15801561062557600080fd5b505af1158015610639573d6000803e3d6000fd5b50505050565b600260075460ff16600281111561065857610658610acb565b036106ad5760055460065460405163f3fef3a360e01b815230600482015260248101919091526001600160a01b039091169063f3fef3a390604401600060405180830381600087803b15801561062557600080fd5b565b60003361037c818585610935565b6001600160a01b0383166106e85780600260008282546106dd9190610b76565b9091555061075a9050565b6001600160a01b0383166000908152602081905260409020548181101561073b5760405163391434e360e21b81526001600160a01b03851660048201526024810182905260448101839052606401610521565b6001600160a01b03841660009081526020819052604090209082900390555b6001600160a01b03821661077657600280548290039055610795565b6001600160a01b03821660009081526020819052604090208054820190555b816001600160a01b0316836001600160a01b03167fddf252ad1be2c89b69c2b068fc378daa952ba7f163c4a11628f55a4df523b3ef836040516107da91815260200190565b60405180910390a3505050565b6001600160a01b0384166108115760405163e602df0560e01b815260006004820152602401610521565b6001600160a01b03831661083b57604051634a1406b160e11b815260006004820152602401610521565b6001600160a01b038085166000908152600160209081526040808320938716835292905220829055801561063957826001600160a01b0316846001600160a01b03167f8c5be1e5ebec7d5bd14f71427d1e84f3dd0314c0f7b2291e5b200ac8c7c3b925846040516108ae91815260200190565b60405180910390a350505050565b6001600160a01b03838116600090815260016020908152604080832093861683529290522054600019811015610639578181101561092657604051637dc7a0d960e11b81526001600160a01b03841660048201526024810182905260448101839052606401610521565b610639848484840360006107e7565b6001600160a01b03831661095f57604051634b637e8f60e11b815260006004820152602401610521565b6001600160a01b0382166109895760405163ec442f0560e01b815260006004820152602401610521565b6105438383836106bd565b80356001600160a01b03811681146109ab57600080fd5b919050565b600080604083850312156109c357600080fd5b6109cc83610994565b946020939093013593505050565b600060208083528351808285015260005b81811015610a07578581018301518582016040015282016109eb565b506000604082860101526040601f19601f8301168501019250505092915050565b600080600060608486031215610a3d57600080fd5b610a4684610994565b9250610a5460208501610994565b9150604084013590509250925092565b600080600060608486031215610a7957600080fd5b610a8284610994565b95602085013595506040909401359392505050565b600060208284031215610aa957600080fd5b6104f482610994565b600060208284031215610ac457600080fd5b5035919050565b634e487b7160e01b600052602160045260246000fd5b6020810160038310610b0357634e487b7160e01b600052602160045260246000fd5b91905290565b60008060408385031215610b1c57600080fd5b610b2583610994565b9150610b3360208401610994565b90509250929050565b600181811c90821680610b5057607f821691505b602082108103610b7057634e487b7160e01b600052602260045260246000fd5b50919050565b8082018082111561038257634e487b7160e01b600052601160045260246000fdfea26469706673582212204e37fe8da79bf81628a49bdfa91a0619ccd5750450033758d4b243f518b16a7b64736f6c63430008140033",
  "linkReferences": {},
  "deployedLinkReferences": {}
}