{
  "_format": "hh-sol-artifact-1",
  "contractName": "AegisVault",
  "sourceName": "contracts/AegisVault.sol",
  "abi": [
    {
      "inputs": [
        {
          "internalType": "address",
          "name": "initialOwner",
          "type": "address"
        },
        {
          "internalType": "address",
          "name": "initialAiOracle",
          "type": "address"
        }
      ],
      "stateMutability": "nonpayable",
      "type": "constructor"
    },
    {
      "inputs": [],
      "name": "AmountMustBeGreaterThanZero",
      "type": "error"
    },
    {
      "inputs": [
        {
          "internalType": "address",
          "name": "account",
          "type": "address"
        },
        {
          "internalType": "address",
          "name": "token",
          "type": "address"
        },
        {
          "internalType": "uint256",
          "name": "available",
          "type": "uint256"
        },
        {
          "internalType": "uint256",
          "name": "requested",
          "type": "uint256"
        }
      ],
      "name": "InsufficientDepositBalance",
      "type": "error"
    },
    {
      "inputs": [],
      "name": "InvalidAIOracleAddress",
      "type": "error"
    },
    {
      "inputs": [],
      "name": "InvalidOracleAddress",
      "type": "error"
    },
    {
      "inputs": [],
      "name": "InvalidTokenAddress",
      "type": "error"
    },
    {
      "inputs": [
        {
          "internalType": "address",
          "name": "caller",
          "type": "address"
        }
      ],
      "name": "OnlyAIOracle",
      "type": "error"
    },
    {
      "inputs": [
        {
          "internalType": "address",
          "name": "owner",
          "type": "address"
        }
      ],
      "name": "OwnableInvalidOwner",
      "type": "error"
    },
    {
      "inputs": [
        {
          "internalType": "address",
          "name": "account",
          "type": "address"
        }
      ],
      "name": "OwnableUnauthorizedAccount",
      "type": "error"
    },
    {
      "inputs": [],
      "name": "ReentrancyGuardReentrantCall",
      "type": "error"
    },
    {
      "inputs": [
        {
          "internalType": "uint256",
          "name": "riskScore",
          "type": "uint256"
        }
      ],
      "name": "RiskScoreTooHigh",
      "type": "error"
    },
    {
      "inputs": [
        {
          "internalType": "address",
          "name": "token",
          "type": "address"
        }
      ],
      "name": "SafeERC20FailedOperation",
      "type": "error"
    },
    {
      "inputs": [
        {
          "internalType": "address",
          "name": "token",
          "type": "address"
        }
      ],
      "name": "TokenNotSupported",
      "type": "error"
    },
    {
      "anonymous": false,
      "inputs": [
        {
          "indexed": true,
          "internalType": "address",
          "name": "newOracleAddress",
          "type": "address"
        }
      ],
      "name": "AIOracleUpdated",
      "type": "event"
    },
    {
      "anonymous": false,
      "inputs": [
        {
          "indexed": true,
          "internalType": "address",
          "name": "user",
          "type": "address"
        },
        {
          "indexed": true,
          "internalType": "address",
          "name": "token",
          "type": "address"
        },
        {
          "indexed": false,
          "internalType": "uint256",
          "name": "amount",
          "type": "uint256"
        },
        {
          "indexed": false,
          "internalType": "uint256",
          "name": "timestamp",
          "type": "uint256"
        }
      ],
      "name": "Deposit",
      "type": "event"
    },
    {
      "anonymous": false,
      "inputs": [
        {
          "indexed": true,
          "internalType": "address",
          "name": "previousOwner",
          "type": "address"
        },
        {
          "indexed": true,
          "internalType": "address",
          "name": "newOwner",
          "type": "address"
        }
      ],
      "name": "OwnershipTransferred",
      "type": "event"
    },
    {
      "anonymous": false,
      "inputs": [
        {
          "indexed": true,
          "internalType": "address",
          "name": "token",
          "type": "address"
        }
      ],
      "name": "TokenSupported",
      "type": "event"
    },
    {
      "anonymous": false,
      "inputs": [
        {
          "indexed": true,
          "internalType": "address",
          "name": "user",
          "type": "address"
        },
        {
          "indexed": true,
          "internalType": "address",
          "name": "token",
          "type": "address"
        },
        {
          "indexed": false,
          "internalType": "uint256",
          "name": "amount",
          "type": "uint256"
        },
        {
          "indexed": false,
          "internalType": "uint256",
          "name": "timestamp",
          "type": "uint256"
        }
      ],
      "name": "Withdrawal",
      "type": "event"
    },
    {
      "anonymous": false,
      "inputs": [
        {
          "indexed": true,
          "internalType": "uint32",
          "name": "destParachainId",
          "type": "uint32"
        },
        {
          "indexed": false,
          "internalType": "uint256",
          "name": "amount",
          "type": "uint256"
        },
        {
          "indexed": false,
          "internalType": "uint256",
          "name": "riskScore",
          "type": "uint256"
        },
        {
          "indexed": false,
          "internalType": "uint256",
          "name": "timestamp",
          "type": "uint256"
        }
      ],
      "name": "YieldRoutedViaXCM",
      "type": "event"
    },
    {
      "inputs": [],
      "name": "MAX_RISK_SCORE",
      "outputs": [
        {
          "internalType": "uint256",
          "name": "",
          "type": "uint256"
        }
      ],
      "stateMutability": "view",
      "type": "function"
    },
    {
      "inputs": [],
      "name": "POLKADOT_XCM",
      "outputs": [
        {
          "internalType": "address",
          "name": "",
          "type": "address"
        }
      ],
      "stateMutability": "view",
      "type": "function"
    },
    {
      "inputs": [
        {
          "internalType": "address",
          "name": "token",
          "type": "address"
        }
      ],
      "name": "addSupportedToken",
      "outputs": [],
      "stateMutability": "nonpayable",
      "type": "function"
    },
    {
      "inputs": [],
      "name": "aiOracleAddress",
      "outputs": [
        {
          "internalType": "address",
          "name": "",
          "type": "address"
        }
      ],
      "stateMutability": "view",
      "type": "function"
    },
    {
      "inputs": [
        {
          "internalType": "address",
          "name": "token",
          "type": "address"
        },
        {
          "internalType": "uint256",
          "name": "amount",
          "type": "uint256"
        }
      ],
      "name": "deposit",
      "outputs": [],
      "stateMutability": "nonpayable",
      "type": "function"
    },
    {
      "inputs": [
        {
          "internalType": "address",
          "name": "user",
          "type": "address"
        },
        {
          "internalType": "address",
          "name": "token",
          "type": "address"
        }
      ],
      "name": "getUserDeposit",
      "outputs": [
        {
          "internalType": "uint256",
          "name": "",
          "type": "uint256"
        }
      ],
      "stateMutability": "view",
      "type": "function"
    },
    {
      "inputs": [
        {
          "internalType": "address",
          "name": "token",
          "type": "address"
        }
      ],
      "name": "getVaultBalance",
      "outputs": [
        {
          "internalType": "uint256",
          "name": "",
          "type": "uint256"
        }
      ],
      "stateMutability": "view",
      "type": "function"
    },
    {
      "inputs": [],
      "name": "owner",
      "outputs": [
        {
          "internalType": "address",
          "name": "",
          "type": "address"
        }
      ],
      "stateMutability": "view",
      "type": "function"
    },
    {
      "inputs": [],
      "name": "renounceOwnership",
      "outputs": [],
      "stateMutability": "nonpayable",
      "type": "function"
    },
    {
      "inputs": [
        {
          "internalType": "uint32",
          "name": "destParachainId",
          "type": "uint32"
        },
        {
          "internalType": "uint256",
          "name": "amount",
          "type": "uint256"
        },
        {
          "internalType": "uint256",
          "name": "aiRiskScore",
          "type": "uint256"
        }
      ],
      "name": "routeYieldViaXCM",
      "outputs": [],
      "stateMutability": "nonpayable",
      "type": "function"
    },
    {
      "inputs": [
        {
          "internalType": "address",
          "name": "newOracleAddress",
          "type": "address"
        }
      ],
      "name": "setAIOracleAddress",
      "outputs": [],
      "stateMutability": "nonpayable",
      "type": "function"
    },
    {
      "inputs": [
        {
          "internalType": "address",
          "name": "",
          "type": "address"
        }
      ],
      "name": "supportedTokens",
      "outputs": [
        {
          "internalType": "bool",
          "name": "",
          "type": "bool"
        }
      ],
      "stateMutability": "view",
      "type": "function"
    },
    {
      "inputs": [
        {
          "internalType": "address",
          "name": "",
          "type": "address"
        }
      ],
      "name": "totalDeposits",
      "outputs": [
        {
          "internalType": "uint256",
          "name": "",
          "type": "uint256"
        }
      ],
      "stateMutability": "view",
      "type": "function"
    },
    {
      "inputs": [
        {
          "internalType": "address",
          "name": "newOwner",
          "type": "address"
        }
      ],
      "name": "transferOwnership",
      "outputs": [],
      "stateMutability": "nonpayable",
      "type": "function"
    },
    {
      "inputs": [
        {
          "internalType": "address",
          "name": "",
          "type": "address"
        },
        {
          "internalType": "address",
          "name": "",
          "type": "address"
        }
      ],
      "name": "userDeposits",
      "outputs": [
        {
          "internalType": "uint256",
          "name": "",
          "type": "uint256"
        }
      ],
      "stateMutability": "view",
      "type": "function"
    },
    {
      "inputs": [
        {
          "internalType": "address",
          "name": "token",
          "type": "address"
        },
        {
          "internalType": "uint256",
          "name": "amount",
          "type": "uint256"
        }
      ],
      "name": "withdraw",
      "outputs": [],
      "stateMutability": "nonpayable",
      "type": "function"
    }
  ],
  "bytecode": "0x608060405234801561001057600080fd5b50604051610d2c380380610d2c83398101604081905261002f91610145565b816001600160a01b03811661005e57604051631e4fbdf760e01b81526000600482015260240160405180910390fd5b610067816100d9565b5060017f9b779b17422d0df92223018b32b4d1fa46e071723d6817e2486d003becc55f00556001600160a01b0381166100b35760405163102837e160e21b815260040160405180910390fd5b600180546001600160a01b0319166001600160a01b039290921691909117905550610178565b600080546001600160a01b038381166001600160a01b0319831681178455604051919092169283917f8be0079c531659141344cd1fd0a4f28419497f9722a3daafe3b4186f6b6457e09190a35050565b80516001600160a01b038116811461014057600080fd5b919050565b6000806040838503121561015857600080fd5b61016183610129565b915061016f60208401610129565b90509250929050565b610ba5806101876000396000f3fe608060405234801561001057600080fd5b50600436106101005760003560e01c8063715018a611610097578063d3d7c00211610066578063d3d7c0021461022c578063e94032561461023f578063f2fde38b1461025f578063f3fef3a31461027257600080fd5b8063715018a6146101ed5780637b15e5df146101f55780638da5cb5b1461020857806394e1c74c1461021957600080fd5b80635a64dc5d116100d35780635a64dc5d146101735780635ad18fbf1461019457806368c4ac26146101a75780636d69fcaf146101da57600080fd5b8063148c658c14610105578063436d80391461012b57806345f191311461015657806347e7ef241461015e575b600080fd5b610118610113366004610a3d565b610285565b6040519081526020015b60405180910390f35b610118610139366004610a3d565b600360209081526000928352604080842090915290825290205481565b610118604b81565b61017161016c366004610a70565b6102b2565b005b61017c61080181565b6040516001600160a01b039091168152602001610122565b6101716101a2366004610a9a565b610407565b6101ca6101b5366004610ad8565b60026020526000908152604090205460ff1681565b6040519015158152602001610122565b6101716101e8366004610ad8565b6104f1565b61017161056c565b60015461017c906001600160a01b031681565b6000546001600160a01b031661017c565b610171610227366004610ad8565b610580565b61011861023a366004610ad8565b6105f9565b61011861024d366004610ad8565b60046020526000908152604090205481565b61017161026d366004610ad8565b610664565b610171610280366004610a70565b6106a2565b6001600160a01b038083166000908152600360209081526040808320938516835292905220545b92915050565b6102ba610810565b6001600160a01b03821660009081526002602052604090205460ff16610303576040516306439c6b60e01b81526001600160a01b03831660048201526024015b60405180910390fd5b8060000361032457604051635e85ae7360e01b815260040160405180910390fd5b3361033a6001600160a01b03841682308561082c565b6001600160a01b03808216600090815260036020908152604080832093871683529290529081208054849290610371908490610b10565b90915550506001600160a01b0383166000908152600460205260408120805484929061039e908490610b10565b9091555050604080518381524260208201526001600160a01b0380861692908416917fdcbc1c05240f31ff3ad067ef1ee35ce4997762752e3a095284754544f4c709d7910160405180910390a3506104036001600080516020610b5083398151915255565b5050565b60015433906001600160a01b0316811461043f57604051630fbe58b160e31b81526001600160a01b03821660048201526024016102fa565b610447610810565b604b821061046b57604051632977070b60e21b8152600481018390526024016102fa565b8260000361048c57604051635e85ae7360e01b815260040160405180910390fd5b60408051848152602081018490524281830152905163ffffffff8616917f64ff5e039abdb9baedfe0636665d21ddecf036628513b9b59ad3a180fa3473a9919081900360600190a26104eb6001600080516020610b5083398151915255565b50505050565b6104f9610862565b6001600160a01b03811661052057604051630f58058360e11b815260040160405180910390fd5b6001600160a01b038116600081815260026020526040808220805460ff19166001179055517fea3145306a87baeba6bb1a8b5c8d3744f840a81cb436b3509f64fc978600cdfb9190a250565b610574610862565b61057e600061088f565b565b610588610862565b6001600160a01b0381166105af57604051635521068160e01b815260040160405180910390fd5b600180546001600160a01b0319166001600160a01b0383169081179091556040517f01db34cc1fec70288d8d48ba67dae8f2c3cfc760b51fb6d30300257d7f7911b390600090a250565b6040516370a0823160e01b81523060048201526000906001600160a01b038316906370a0823190602401602060405180830381865afa158015610640573d6000803e3d6000fd5b505050506040513d601f19601f820116820180604052508101906102ac9190610b23565b61066c610862565b6001600160a01b03811661069657604051631e4fbdf760e01b8152600060048201526024016102fa565b61069f8161088f565b50565b6106aa610810565b806000036106cb57604051635e85ae7360e01b815260040160405180910390fd5b3360008181526003602090815260408083206001600160a01b0387168452909152902054828110156107315760405163e802653d60e01b81526001600160a01b0380841660048301528516602482015260448101829052606481018490526084016102fa565b6001600160a01b03808316600090815260036020908152604080832093881683529290529081208054859290610768908490610b3c565b90915550506001600160a01b03841660009081526004602052604081208054859290610795908490610b3c565b909155506107af90506001600160a01b03851683856108df565b604080518481524260208201526001600160a01b0380871692908516917fc2b4a290c20fb28939d29f102514fbffd2b73c059ffba8b78250c94161d5fcc6910160405180910390a350506104036001600080516020610b5083398151915255565b610818610919565b6002600080516020610b5083398151915255565b61083a848484846001610949565b6104eb57604051635274afe760e01b81526001600160a01b03851660048201526024016102fa565b6000546001600160a01b0316331461057e5760405163118cdaa760e01b81523360048201526024016102fa565b600080546001600160a01b038381166001600160a01b0319831681178455604051919092169283917f8be0079c531659141344cd1fd0a4f28419497f9722a3daafe3b4186f6b6457e09190a35050565b6108ec83838360016109bb565b61091457604051635274afe760e01b81526001600160a01b03841660048201526024016102fa565b505050565b600080516020610b508339815191525460020361057e57604051633ee5aeb560e01b815260040160405180910390fd5b6040516323b872dd60e01b60008181526001600160a01b038781166004528616602452604485905291602083606481808c5af1925060016000511483166109a957838315161561099c573d6000823e3d81fd5b6000883b113d1516831692505b60405250600060605295945050505050565b60405163a9059cbb60e01b60008181526001600160a01b038616600452602485905291602083604481808b5af192506001600051148316610a15578383151615610a08573d6000823e3d81fd5b6000873b113d1516831692505b60405250949350505050565b80356001600160a01b0381168114610a3857600080fd5b919050565b60008060408385031215610a5057600080fd5b610a5983610a21565b9150610a6760208401610a21565b90509250929050565b60008060408385031215610a8357600080fd5b610a8c83610a21565b946020939093013593505050565b600080600060608486031215610aaf57600080fd5b833563ffffffff81168114610ac357600080fd5b95602085013595506040909401359392505050565b600060208284031215610aea57600080fd5b610af382610a21565b9392505050565b634e487b7160e01b600052601160045260246000fd5b808201808211156102ac576102ac610afa565b600060208284031215610b3557600080fd5b5051919050565b818103818111156102ac576102ac610afa56fe9b779b17422d0df92223018b32b4d1fa46e071723d6817e2486d003becc55f00a26469706673582212202f818c8e81c5165b2229a80423e0ba576ba557762064d53d0a9d5a5835b6447864736f6c63430008140033",
  "linkReferences": {},
  "deployedLinkReferences": {}
}